:020000040800F2
:100000005004002045010008C7010008BF01000896
:10001000C3010008B9010008F50200080000000053
:10002000000000000000000000000000CB010008FC
:10003000BD01000800000000C9010008CD01000852
:100040005F0100085F0100085F0100085F01000810
:100050005F0100085F0100085F0100085F01000800
:100060005F0100085F0100085F0100085F010008F0
:100070005F0100085F0100085F0100085F010008E0
:100080005F0100085F0100085F0100085F010008D0
:100090005F0100085F0100085F0100085F010008C0
:1000A0005F0100085F0100085F0100085F010008B0
:1000B0005F0100085F0100085F0100085F010008A0
:1000C0005F0100085F0100085F0100085F01000890
:1000D0005F0100085F0100085F0100085F01000880
:1000E0005F0100085F0100085F0100085F01000870
:1000F0005F0100085F0100085F0100085F01000860
:100100005F0100085F0100085F0100085F0100084F
:100110005F0100085F0100085F010008A5020008F8
:100120005F0100085F0100085F0100085F0100082F
:10013000DFF80CD000F02EF80048004771080008E6
:10014000500400200648804706480047FEE7FEE7C7
:10015000FEE7FEE7FEE7FEE7FEE7FEE7FEE7FEE777
:10016000D10100083101000830B50B4601460020DE
:100170002022012409E021FA02F59D4205D303FA69
:1001800002F5491B04FA02F52844151EA2F10102EA
:10019000F1DC30BD064C074D06E0E06840F001039D
:1001A00094E8070098471034AC42F6D3FFF7C4FF39
:1001B000640F0008840F000800BFFEE7704700BF0F
:1001C000FEE700BFFEE770477047704770470000CA
:1001D00008B53048006840F001002E49086000BFB3
:1001E0002C48006800F002000028F9D000BF294820
:1001F000406840F08000274948600020009002E0FD
:100200000098401C009000985028F9D3214840687D
:1002100040F090001F4948600020009002E00098E4
:10022000401C009000985028F9D300BF194840683E
:1002300020F0030017494860084600681649084046
:10024000144908600846406814490840114948604C
:1002500008460068104908400E49086008460068D2
:1002600020F480200860084640680D49084009498C
:1002700048600846006808490840064908604FF48D
:100280001F00886000F0ACFC00214FF0006000F01F
:100290007BFB08BD00100240FFFFF6FE0C00FFE8EC
:1002A000FFFF00F710B501210C4800F066FDA0B17A
:1002B00001210A4800F05EFD012009490870094843
:1002C0000068401C0749086008460068642804D19B
:1002D0000020086004A000F00FF810BD00140040DA
:1002E0003800002030000020313030306D730D0AAE
:1002F0000000000000BFFEE70FB4054B10B503A9D6
:10030000044A029800F018F810BC5DF814FB0000D5
:100310008D0400083400002002E008C8121F08C144
:10032000002AFAD170477047002001E001C1121F76
:10033000002AFBD1704700002DE9FF4F89B09B4692
:100340000446002506E025280BD05A460B99904715
:10035000641C6D1C20780028F5D10DB02846BDE83E
:10036000F08F0027B8460122474900E0074314F800
:10037000013F203B02FA03F00842F7D120782E28F3
:1003800019D114F8010F47F004072A280ED06FF096
:100390002F022078A0F1300109290CD808EB880140
:1003A00002EB410100EB0108641CF2E70A98641CAF
:1003B00050F8048B0A9020780028CED0642808D00A
:1003C000692806D075281ED05A460B9990476D1C97
:1003D00058E00A994FF00A0901C90A91002802DA87
:1003E00040422D2102E0390504D52B218DF8201043
:1003F000012103E0F90704D02021F7E78A4608AE7F
:100400000DE00021FAE70A994FF00A0901C90A91A3
:10041000F7E74946FFF7A8FE303106F8011D00282E
:10042000F7D1ADEB060000F12009780701D44FF0B9
:100430000108C84502DDA8EB090000E00020804665
:10044000002706E008A85A46C05D0B9990476D1C2E
:100450007F1C5745F6DB04E030205A460B99904745
:100460006D1CB8F10001A8F10108F5DC05E016F8F3
:10047000010B5A460B9990476D1CB9F10001A9F187
:100480000109F4DC641C65E70928010070B5044625
:100490000D46E1B2054800F0C5FC00BF0721034846
:1004A00000F011FD0028F9D0204670BD0038014051
:1004B00070B50446052600251848408810B917482D
:1004C000848008E015488088A04204D013488480C6
:1004D00000201249488011484088022804DA0F4859
:1004E0004088401C0D4948800C484088022813D1A0
:1004F00001200A49C87100250BE0094830F8350091
:10050000A04204D12E4607A0FFF7F6FE03E0681CC8
:10051000C5B2052DF1DB00BF304670BD38000020AC
:10052000080000204B45592050726573732E0D0A48
:100530000000000010B5002401210F4800F078F8F9
:1005400008B944F001044FF480410C4800F070F801
:1005500008B944F002044FF40041084800F068F87C
:1005600008B944F004048021054800F061F808B996
:1005700044F00504204610BD000801400018014069
:1005800000100140F0B5044616460025002201F097
:100590000F0501F0100707B1354300201EE00127C9
:1005A00087401F40C7B122684FEA800C0F2707FA27
:1005B0000CF7BA43870005FA07F73A43282904D114
:1005C000012787401F40676105E0482903D10127C3
:1005D00087401F4027612260471CB8B20828DED33D
:1005E000082022E0012787401F40E7B16268A0F1A0
:1005F00008074FEA870C0F2707FA0CF7BA43A0F158
:100600000807BF0005FA07F73A43282904D1012754
:1006100087401F40676105E0482903D101278740D3
:100620001F4027616260471CB8B21028DAD3F0BDC2
:1006300002469068084008B1012070470020FCE79E
:1006400010B540F2026000F03DFA40F2046000F0A4
:1006500039FA40F2066000F035FA01230222042143
:100660000B48FFF78FFF4FF4804302220421094813
:10067000FFF788FF4FF40043022204210548FFF7EB
:1006800081FF8023022204210348FFF77BFF10BD76
:100690000008014000180140001001400146002000
:1006A0001F4A9279052A39DA1D4A5288521C1C4B7E
:1006B0005A801A4692888A4230D11A465288022AB3
:1006C00002D10122DA7129E0154A9279154B03EB28
:1006D000C202D288124B5B889A4206D1104A9279A4
:1006E000104B03EBC202D07818E00D4A92790D4B03
:1006F00003EBC202D2881432094B5B889A420DD1B7
:10070000074A9279074B03EBC202D288044B5A8006
:100710001A469279034B03EBC2021079704700002E
:10072000380000200800002000202449C979002951
:100730003ED02249897905293ADA204949881F4A59
:1007400092791F4B03EBC202D288914230DA1B49E7
:1007500089791A4602EBC10188781849897902EB38
:10076000C101497921B315498A790931895C81B17F
:10077000002212498B790931CA5409398B790E311B
:1007800021F813200E3989790D4A02EBC10148790D
:100790000EE0012209498B790931CA541E22093918
:1007A0008B790E3121F813200121044A11720020A7
:1007B0000021024A5180D171918070473800002099
:1007C0000800002070B50024002010490870FFF7D1
:1007D000B1FE05466DB10D48C07928B92846FFF72E
:1007E00067FE0A49887107E02846FFF757FF04466D
:1007F00002E0FFF799FF04462CB90448007A10B1D3
:1008000000F006F80446204670BD000038000020C5
:1008100000220020144B1872002121E012480E30F3
:1008200030F81100D0B110480E3030F81100401EE1
:1008300083B20D480E3020F8113001200A4B187297
:1008400003F10E0030F8110040B9002306480930CA
:100850004354064800EBC10080787047481CC1B281
:100860000529DBDB1046F8E73800002008000020EF
:100870004FF4A06000F07EF8602000F0C9F94FF45A
:10088000165000F02FFBFFF7DBFE40F2E73140F29D
:10089000BF3000F0CFF90AE00548007838B1FFF723
:1008A00091FF04461CB1214602A0FFF725FDF3E7A6
:1008B000380000204B45592056414C5545203D20DD
:1008C00025642E0D0A0000002DE9F04103460D4677
:1008D000164600240027A0462448006800F4E06083
:1008E000B0F5A06F15D006DCB0F5407F18D0B0F59C
:1008F000806F19D110E0B0F5C06F06D0B0F5E06F91
:1009000012D100274FF0040815E001274FF003082B
:1009100011E00227B8460EE003274FF001080AE075
:1009200004274FF0000806E04FF4A06000F022F822
:100930000227B84600BF00BFC7F1040005FA00F463
:10094000C8F104010F20C840304004432401084886
:10095000C45403F01F01012088405911890001F19E
:10096000E021C1F80001BDE8F08100000CED00E0DD
:1009700000E400E002490143024A116070470000B0
:100980000000FA050CED00E0034A0A400243034B65
:100990001A60BFF34F8F704780FFFF1F08ED00E024
:1009A0002DE9F04F8BB00746002009903EA090E85B
:1009B000004CC068CDE905BECDF810A007900FF23D
:1009C000EC0ADAE9000ACDE9020A0FF2E00ADAE9F4
:1009D000000ACDE9000A38484068C0F381000A9057
:1009E0000A9820B1012804D0022829D103E0334914
:1009F00028E0324926E03048406800F48038B8F5F5
:100A0000803F09D12D4C2C48406800F40039B9F5DD
:100A1000003F02D1641000E0294C27484068C0F331
:100A200083422548406800F0006008B142F010029F
:100A30000F2A01D2921C00E0521C04FB02F101E0DB
:100A40001E4900BF00BF1C484068C0F3031504A83E
:100A5000465D21FA06F318484068C0F3022502A853
:100A6000465D23FA06FC14484068C0F3C2251DF811
:100A7000056023FA06F0089037B1012F06D0022F47
:100A800006D0032F0AD106E0099108E0099306E099
:100A9000CDF824C003E00898099000E000BF00BF33
:100AA00009980BB0BDE8F08F0000000000000000C6
:100AB00001020304060708090010024000127A0030
:100AC00000093D00064A02EB9011096800F01F037F
:100AD00001229A401143024B03EB901211607047C0
:100AE00000100240064A02EB9011096800F01F0353
:100AF00001229A409143024B03EB90121160704720
:100B000000100240064A02EB9011096800F01F0332
:100B100001229A401143024B03EB9012116070477F
:100B200000100240002000212B4A126842F480325B
:100B3000294B1A6000BF401C274A126802F400319A
:100B400019B94FF6FF729042F5D1234A126802F4A8
:100B500000320AB900BFFEE71F4A52681E4B5A60B6
:100B60001A4652685A601A46526842F480625A60C5
:100B70001A46526822F440325A601A46526842F4C9
:100B800080325A601A465268144B1A40124B5A600F
:100B90001A46526842F420125A601A46126842F00D
:100BA00080721A6000BF0C4A126802F00072002ABC
:100BB000F9D0094A526822F00302074B5A601A46DC
:100BC000526842F002025A6000BF034A526802F0C3
:100BD0000802002AF9D0704700100240FFFFC3F757
:100BE00010B5FFF79FFF10BD042808D14FF0E0219A
:100BF000096941F004014FF0E022116107E04FF074
:100C0000E021096921F004014FF0E02211617047F1
:100C100010B504460420FFF7E7FF044804704FF4C2
:100C20007A7060430249086010BD00000000002097
:100C3000040000207FB505460C4640F20570FFF722
:100C400041FF0020ADF80200ADF80C00ADF8040043
:100C50000295ADF800408DF80E006946074800F097
:100C600015F80121054800F081F8022211463720CD
:100C7000FFF72AFE014800F003F87FBD0014004092
:100C8000016841F001010160704700000A8882623A
:100C9000294A904220D0B0F1804F1DD0274A90427F
:100CA0001AD0274A904217D0264A904214D0264A9A
:100CB000904211D0254A90420ED0254A90420BD046
:100CC000244A904208D0244A904205D0234A9042B8
:100CD00002D0234A90420FD1026822F070020260D3
:100CE00002688B7803F060031A43026002680B7994
:100CF00003F010031A4302608A68C262194A9042E4
:100D00000CD0194A904209D0026822F44072026065
:100D100002688B8903F440731A430260064A9042CA
:100D200002D0094A904201D18A7B0263426942F0B3
:100D30000102426170470000002C014000040040A5
:100D400000080040000C004000340140004C01400D
:100D5000005001400054014000180040001C0040B9
:100D6000002000400010004000140040C2680A4308
:100D7000C2607047CA43026170470246D06800EA09
:100D800001031069084010B10BB101207047002029
:100D9000FCE700002DE9F04704460D460027B84661
:100DA000B94600261D49601A8C421CD006DC1C483E
:100DB000204470B1B0F5806F1FD10FE0B0F5806FA7
:100DC00016D0B0F56C4F18D10320FFF7E9FD0746A8
:100DD00014E00220FFF7E4FD07460FE00220FFF7D2
:100DE000DFFD07460AE00220FFF7DAFD074605E0CF
:100DF0000220FFF7D5FD074600E000BF00BF07EB6C
:100E00005500B0FBF5F64FF6F07006EA000806F064
:100E10000F0948EA0900A060BDE8F087004C0040D7
:100E200000BCFFBFC1F308024260704710B5044622
:100E30002049601A8C4228D006DC1F48204490B11B
:100E4000B0F5806F33D117E0B0F5806F26D0B0F5E4
:100E50006C4F2CD140F20E30FFF754FE40F20E30B2
:100E6000FFF740FE24E040F21140FFF74BFE40F256
:100E70001140FFF737FE1BE040F21240FFF742FE41
:100E800040F21240FFF72EFE12E040F21340FFF74F
:100E900039FE40F21340FFF725FE09E040F214400E
:100EA000FFF730FE40F21440FFF71CFE00E000BFE9
:100EB00000BF10BD004C004000BCFFBFC16841F442
:100EC0000051C160704710B5024602EB91100068F6
:100ED00001F01F040123A340184008B1012010BDF8
:100EE0000020FCE710B5044640F20260FFF7EAFD7F
:100EF00040F20E60FFF7E6FD4FF400730322182165
:100F00000E48FFF73FFB4FF48063032204210B4898
:100F1000FFF738FB0A48FFF789FF21460848FFF72B
:100F200039FF0421064800F00DF80821044800F0BC
:100F300011F80348FFF7C2FF10BD00000008014090
:100F4000003801400A460021C16821F00401114324
:100F5000C16070470A460021C16821F008011143B1
:100F6000C1607047840F00080000002038000000B6
:100F700018030008BC0F0008380000201804000007
:100F8000280300080000000000000000010001022A
:100F90000304C800020005060008FA000400090A5C
:100FA0000B002C0105000D0E0F002C010300111287
:0C0FB00000002C01000000000000000008
:0400000508000131BD
:00000001FF
