Component: ARM Compiler 5.06 update 6 (build 750) Tool: armlink [4d35ed]

==============================================================================

Section Cross References

    main.o(i.main) refers to gd32f10x_misc.o(i.nvic_priority_group_set) for nvic_priority_group_set
    main.o(i.main) refers to systick.o(i.systick_set) for systick_set
    main.o(i.main) refers to usart.o(i.usart_init) for usart_init
    main.o(i.main) refers to key.o(i.gpio_port_set) for gpio_port_set
    main.o(i.main) refers to timer.o(i.timer_base_set) for timer_base_set
    main.o(i.main) refers to key.o(i.key_scan) for key_scan
    main.o(i.main) refers to printf1.o(i.__0printf$1) for __2printf
    main.o(i.main) refers to key.o(.bss) for key
    system_gd32f10x.o(i.SystemCoreClockUpdate) refers to system_gd32f10x.o(.data) for SystemCoreClock
    system_gd32f10x.o(i.SystemInit) refers to system_gd32f10x.o(i.system_clock_config) for system_clock_config
    system_gd32f10x.o(i.SystemInit) refers to gd32f10x_misc.o(i.nvic_vector_table_set) for nvic_vector_table_set
    system_gd32f10x.o(i.system_clock_config) refers to system_gd32f10x.o(i.system_clock_96m_hxtal) for system_clock_96m_hxtal
    startup_gd32f10x_xd.o(RESET) refers to startup_gd32f10x_xd.o(STACK) for __initial_sp
    startup_gd32f10x_xd.o(RESET) refers to startup_gd32f10x_xd.o(.text) for Reset_Handler
    startup_gd32f10x_xd.o(RESET) refers to gd32f10x_it.o(i.NMI_Handler) for NMI_Handler
    startup_gd32f10x_xd.o(RESET) refers to gd32f10x_it.o(i.HardFault_Handler) for HardFault_Handler
    startup_gd32f10x_xd.o(RESET) refers to gd32f10x_it.o(i.MemManage_Handler) for MemManage_Handler
    startup_gd32f10x_xd.o(RESET) refers to gd32f10x_it.o(i.BusFault_Handler) for BusFault_Handler
==============================================================================

Removing Unused input sections from the image.

    Removing gd32f10x_it.o(.rev16_text), (4 bytes).
    Removing gd32f10x_it.o(.revsh_text), (4 bytes).
    Removing main.o(.rev16_text), (4 bytes).
    Removing main.o(.revsh_text), (4 bytes).
    Removing system_gd32f10x.o(.rev16_text), (4 bytes).
    Removing system_gd32f10x.o(.revsh_text), (4 bytes).
    Removing system_gd32f10x.o(i.SystemCoreClockUpdate), (228 bytes).
    Removing system_gd32f10x.o(.data), (4 bytes).
    Removing startup_gd32f10x_xd.o(HEAP), (512 bytes).
    Removing gd32f10x_adc.o(.rev16_text), (4 bytes).
    Removing gd32f10x_adc.o(.revsh_text), (4 bytes).
    Removing gd32f10x_adc.o(i.adc_calibration_enable), (42 bytes).
    Removing gd32f10x_adc.o(i.adc_channel_length_config), (70 bytes).
    Removing gd32f10x_adc.o(i.adc_data_alignment_config), (22 bytes).
    Removing gd32f10x_adc.o(i.adc_deinit), (88 bytes).
    Removing gd32f10x_adc.o(i.adc_disable), (10 bytes).
    Removing gd32f10x_adc.o(i.adc_discontinuous_mode_config), (76 bytes).
    Removing gd32f10x_adc.o(i.adc_dma_mode_disable), (10 bytes).
==============================================================================

Image Symbol Table

    Local Symbols

    Symbol Name                              Value     Ov Type        Size  Object(Section)

    ../clib/microlib/division.c              0x00000000   Number         0  uldiv.o ABSOLUTE
    ../clib/microlib/division.c              0x00000000   Number         0  uidiv.o ABSOLUTE
    ../clib/microlib/init/entry.s            0x00000000   Number         0  entry8b.o ABSOLUTE
    ../clib/microlib/init/entry.s            0x00000000   Number         0  entry.o ABSOLUTE
    ../clib/microlib/init/entry.s            0x00000000   Number         0  entry11a.o ABSOLUTE
    ../clib/microlib/init/entry.s            0x00000000   Number         0  entry11b.o ABSOLUTE
    ../clib/microlib/init/entry.s            0x00000000   Number         0  entry10b.o ABSOLUTE
    ../clib/microlib/init/entry.s            0x00000000   Number         0  entry10a.o ABSOLUTE
    ../clib/microlib/init/entry.s            0x00000000   Number         0  entry9b.o ABSOLUTE
    ../clib/microlib/init/entry.s            0x00000000   Number         0  entry9a.o ABSOLUTE
    ../clib/microlib/init/entry.s            0x00000000   Number         0  entry2.o ABSOLUTE
    ../clib/microlib/init/entry.s            0x00000000   Number         0  entry8a.o ABSOLUTE
    ../clib/microlib/init/entry.s            0x00000000   Number         0  entry5.o ABSOLUTE
    ../clib/microlib/init/entry.s            0x00000000   Number         0  entry7a.o ABSOLUTE
    ../clib/microlib/init/entry.s            0x00000000   Number         0  entry7b.o ABSOLUTE
    ../clib/microlib/longlong.c              0x00000000   Number         0  llsshr.o ABSOLUTE
    ../clib/microlib/longlong.c              0x00000000   Number         0  llushr.o ABSOLUTE
    ../clib/microlib/longlong.c              0x00000000   Number         0  llshl.o ABSOLUTE
    ../clib/microlib/printf/printf.c         0x00000000   Number         0  printf8.o ABSOLUTE
    ../clib/microlib/printf/printf.c         0x00000000   Number         0  printfa.o ABSOLUTE
    ../clib/microlib/printf/printf.c         0x00000000   Number         0  printfb.o ABSOLUTE
    ../clib/microlib/printf/printf.c         0x00000000   Number         0  printf0.o ABSOLUTE
    ../clib/microlib/printf/printf.c         0x00000000   Number         0  printf1.o ABSOLUTE
    ../clib/microlib/printf/printf.c         0x00000000   Number         0  printf2.o ABSOLUTE
    ../clib/microlib/printf/printf.c         0x00000000   Number         0  printf3.o ABSOLUTE
    ../clib/microlib/printf/printf.c         0x00000000   Number         0  printf4.o ABSOLUTE
    ../clib/microlib/printf/printf.c         0x00000000   Number         0  printf5.o ABSOLUTE
    ../clib/microlib/printf/printf.c         0x00000000   Number         0  printf6.o ABSOLUTE
    ../clib/microlib/printf/printf.c         0x00000000   Number         0  printf7.o ABSOLUTE
    ../clib/microlib/printf/stubs.s          0x00000000   Number         0  stubs.o ABSOLUTE
    ../clib/microlib/stdio/streams.c         0x00000000   Number         0  stdout.o ABSOLUTE
    ../clib/microlib/stubs.s                 0x00000000   Number         0  iusefp.o ABSOLUTE
    ../fplib/microlib/fpadd.c                0x00000000   Number         0  dadd.o ABSOLUTE
    ../fplib/microlib/fpdiv.c                0x00000000   Number         0  ddiv.o ABSOLUTE
    ../fplib/microlib/fpepilogue.c           0x00000000   Number         0  depilogue.o ABSOLUTE
    ../fplib/microlib/fpfix.c                0x00000000   Number         0  dfixul.o ABSOLUTE
    ../fplib/microlib/fpmul.c                0x00000000   Number         0  dmul.o ABSOLUTE
    cdrcmple.s                               0x00000000   Number         0  cdrcmple.o ABSOLUTE
    dc.s                                     0x00000000   Number         0  dc.o ABSOLUTE
    driver\\bitband.c                        0x00000000   Number         0  bitband.o ABSOLUTE
    driver\\key.c                            0x00000000   Number         0  key.o ABSOLUTE
    driver\\systick.c                        0x00000000   Number         0  systick.o ABSOLUTE
    driver\\timer.c                          0x00000000   Number         0  timer.o ABSOLUTE
    driver\\usart.c                          0x00000000   Number         0  usart.o ABSOLUTE
    driver\bitband.c                         0x00000000   Number         0  bitband.o ABSOLUTE
    driver\key.c                             0x00000000   Number         0  key.o ABSOLUTE
    driver\systick.c                         0x00000000   Number         0  systick.o ABSOLUTE
    driver\timer.c                           0x00000000   Number         0  timer.o ABSOLUTE
    driver\usart.c                           0x00000000   Number         0  usart.o ABSOLUTE
    handlers.s                               0x00000000   Number         0  handlers.o ABSOLUTE
    init.s                                   0x00000000   Number         0  init.o ABSOLUTE
    std\Source\gd32f10x_adc.c                0x00000000   Number         0  gd32f10x_adc.o ABSOLUTE
    std\Source\gd32f10x_bkp.c                0x00000000   Number         0  gd32f10x_bkp.o ABSOLUTE
    std\Source\gd32f10x_can.c                0x00000000   Number         0  gd32f10x_can.o ABSOLUTE
    std\Source\gd32f10x_crc.c                0x00000000   Number         0  gd32f10x_crc.o ABSOLUTE
    std\Source\gd32f10x_dac.c                0x00000000   Number         0  gd32f10x_dac.o ABSOLUTE
    std\Source\gd32f10x_dbg.c                0x00000000   Number         0  gd32f10x_dbg.o ABSOLUTE
    std\Source\gd32f10x_dma.c                0x00000000   Number         0  gd32f10x_dma.o ABSOLUTE
    std\Source\gd32f10x_enet.c               0x00000000   Number         0  gd32f10x_enet.o ABSOLUTE
    std\Source\gd32f10x_exmc.c               0x00000000   Number         0  gd32f10x_exmc.o ABSOLUTE
    std\Source\gd32f10x_exti.c               0x00000000   Number         0  gd32f10x_exti.o ABSOLUTE
    std\Source\gd32f10x_fmc.c                0x00000000   Number         0  gd32f10x_fmc.o ABSOLUTE
    std\Source\gd32f10x_fwdgt.c              0x00000000   Number         0  gd32f10x_fwdgt.o ABSOLUTE
    std\Source\gd32f10x_gpio.c               0x00000000   Number         0  gd32f10x_gpio.o ABSOLUTE
    std\Source\gd32f10x_i2c.c                0x00000000   Number         0  gd32f10x_i2c.o ABSOLUTE
    std\Source\gd32f10x_misc.c               0x00000000   Number         0  gd32f10x_misc.o ABSOLUTE
    std\Source\gd32f10x_pmu.c                0x00000000   Number         0  gd32f10x_pmu.o ABSOLUTE
    std\Source\gd32f10x_rcu.c                0x00000000   Number         0  gd32f10x_rcu.o ABSOLUTE
    std\Source\gd32f10x_rtc.c                0x00000000   Number         0  gd32f10x_rtc.o ABSOLUTE
    std\Source\gd32f10x_sdio.c               0x00000000   Number         0  gd32f10x_sdio.o ABSOLUTE
    std\Source\gd32f10x_spi.c                0x00000000   Number         0  gd32f10x_spi.o ABSOLUTE
    std\Source\gd32f10x_timer.c              0x00000000   Number         0  gd32f10x_timer.o ABSOLUTE
    std\Source\gd32f10x_usart.c              0x00000000   Number         0  gd32f10x_usart.o ABSOLUTE
    std\Source\gd32f10x_wwdgt.c              0x00000000   Number         0  gd32f10x_wwdgt.o ABSOLUTE
    std\\Source\\gd32f10x_adc.c              0x00000000   Number         0  gd32f10x_adc.o ABSOLUTE
    std\\Source\\gd32f10x_bkp.c              0x00000000   Number         0  gd32f10x_bkp.o ABSOLUTE
    std\\Source\\gd32f10x_can.c              0x00000000   Number         0  gd32f10x_can.o ABSOLUTE
    std\\Source\\gd32f10x_crc.c              0x00000000   Number         0  gd32f10x_crc.o ABSOLUTE
    std\\Source\\gd32f10x_dac.c              0x00000000   Number         0  gd32f10x_dac.o ABSOLUTE
    std\\Source\\gd32f10x_dbg.c              0x00000000   Number         0  gd32f10x_dbg.o ABSOLUTE
    std\\Source\\gd32f10x_dma.c              0x00000000   Number         0  gd32f10x_dma.o ABSOLUTE
    std\\Source\\gd32f10x_enet.c             0x00000000   Number         0  gd32f10x_enet.o ABSOLUTE
    std\\Source\\gd32f10x_exmc.c             0x00000000   Number         0  gd32f10x_exmc.o ABSOLUTE
    std\\Source\\gd32f10x_exti.c             0x00000000   Number         0  gd32f10x_exti.o ABSOLUTE
    std\\Source\\gd32f10x_fmc.c              0x00000000   Number         0  gd32f10x_fmc.o ABSOLUTE
    std\\Source\\gd32f10x_fwdgt.c            0x00000000   Number         0  gd32f10x_fwdgt.o ABSOLUTE
    std\\Source\\gd32f10x_gpio.c             0x00000000   Number         0  gd32f10x_gpio.o ABSOLUTE
    std\\Source\\gd32f10x_i2c.c              0x00000000   Number         0  gd32f10x_i2c.o ABSOLUTE
    std\\Source\\gd32f10x_misc.c             0x00000000   Number         0  gd32f10x_misc.o ABSOLUTE
    std\\Source\\gd32f10x_pmu.c              0x00000000   Number         0  gd32f10x_pmu.o ABSOLUTE
    std\\Source\\gd32f10x_rcu.c              0x00000000   Number         0  gd32f10x_rcu.o ABSOLUTE
    std\\Source\\gd32f10x_rtc.c              0x00000000   Number         0  gd32f10x_rtc.o ABSOLUTE
    std\\Source\\gd32f10x_sdio.c             0x00000000   Number         0  gd32f10x_sdio.o ABSOLUTE
    std\\Source\\gd32f10x_spi.c              0x00000000   Number         0  gd32f10x_spi.o ABSOLUTE
    std\\Source\\gd32f10x_timer.c            0x00000000   Number         0  gd32f10x_timer.o ABSOLUTE
    std\\Source\\gd32f10x_usart.c            0x00000000   Number         0  gd32f10x_usart.o ABSOLUTE
    std\\Source\\gd32f10x_wwdgt.c            0x00000000   Number         0  gd32f10x_wwdgt.o ABSOLUTE
    user\\gd32f10x_it.c                      0x00000000   Number         0  gd32f10x_it.o ABSOLUTE
    user\\main.c                             0x00000000   Number         0  main.o ABSOLUTE
    user\\system_gd32f10x.c                  0x00000000   Number         0  system_gd32f10x.o ABSOLUTE
    user\gd32f10x_it.c                       0x00000000   Number         0  gd32f10x_it.o ABSOLUTE
    user\main.c                              0x00000000   Number         0  main.o ABSOLUTE
    user\startup_gd32f10x_xd.s               0x00000000   Number         0  startup_gd32f10x_xd.o ABSOLUTE
    user\system_gd32f10x.c                   0x00000000   Number         0  system_gd32f10x.o ABSOLUTE
    RESET                                    0x08000000   Section      304  startup_gd32f10x_xd.o(RESET)
    .ARM.Collect$$$$00000000                 0x08000130   Section        0  entry.o(.ARM.Collect$$$$00000000)
    .ARM.Collect$$$$00000001                 0x08000130   Section        4  entry2.o(.ARM.Collect$$$$00000001)
    .ARM.Collect$$$$00000004                 0x08000134   Section        4  entry5.o(.ARM.Collect$$$$00000004)
    .ARM.Collect$$$$00000008                 0x08000138   Section        0  entry7b.o(.ARM.Collect$$$$00000008)
    .ARM.Collect$$$$0000000A                 0x08000138   Section        0  entry8b.o(.ARM.Collect$$$$0000000A)
    .ARM.Collect$$$$0000000B                 0x08000138   Section        8  entry9a.o(.ARM.Collect$$$$0000000B)
    .ARM.Collect$$$$0000000D                 0x08000140   Section        0  entry10a.o(.ARM.Collect$$$$0000000D)
    .ARM.Collect$$$$0000000F                 0x08000140   Section        0  entry11a.o(.ARM.Collect$$$$0000000F)
    .ARM.Collect$$$$00002712                 0x08000140   Section        4  entry2.o(.ARM.Collect$$$$00002712)
    __lit__00000000                          0x08000140   Data           4  entry2.o(.ARM.Collect$$$$00002712)
    .text                                    0x08000144   Section       36  startup_gd32f10x_xd.o(.text)
    .text                                    0x08000168   Section        0  uidiv.o(.text)
    .text                                    0x08000194   Section       36  init.o(.text)
    i.BusFault_Handler                       0x080001b8   Section        0  gd32f10x_it.o(i.BusFault_Handler)
    i.DebugMon_Handler                       0x080001bc   Section        0  gd32f10x_it.o(i.DebugMon_Handler)
    i.HardFault_Handler                      0x080001be   Section        0  gd32f10x_it.o(i.HardFault_Handler)
    i.MemManage_Handler                      0x080001c2   Section        0  gd32f10x_it.o(i.MemManage_Handler)
    i.NMI_Handler                            0x080001c6   Section        0  gd32f10x_it.o(i.NMI_Handler)
    i.PendSV_Handler                         0x080001c8   Section        0  gd32f10x_it.o(i.PendSV_Handler)
    i.SVC_Handler                            0x080001ca   Section        0  gd32f10x_it.o(i.SVC_Handler)
    i.SysTick_Handler                        0x080001cc   Section        0  gd32f10x_it.o(i.SysTick_Handler)
    i.SystemInit                             0x080001d0   Section        0  system_gd32f10x.o(i.SystemInit)
    i.TIMER6_IRQHandler                      0x080002a4   Section        0  key.o(i.TIMER6_IRQHandler)
    i.UsageFault_Handler                     0x080002f4   Section        0  gd32f10x_it.o(i.UsageFault_Handler)
    i.__0printf$1                            0x080002f8   Section        0  printf1.o(i.__0printf$1)
    i.__scatterload_copy                     0x08000318   Section       14  handlers.o(i.__scatterload_copy)
    i.__scatterload_null                     0x08000326   Section        2  handlers.o(i.__scatterload_null)
    i.__scatterload_zeroinit                 0x08000328   Section       14  handlers.o(i.__scatterload_zeroinit)
    i._printf_core                           0x08000338   Section        0  printf1.o(i._printf_core)
    _printf_core                             0x08000339   Thumb Code   336  printf1.o(i._printf_core)
    i.fputc                                  0x0800048c   Section        0  usart.o(i.fputc)
    i.get_key_id                             0x080004b0   Section        0  key.o(i.get_key_id)
    get_key_id                               0x080004b1   Thumb Code   108  key.o(i.get_key_id)
    i.get_key_input                          0x08000534   Section        0  key.o(i.get_key_input)
    get_key_input                            0x08000535   Thumb Code    68  key.o(i.get_key_input)
    i.gpio_init                              0x08000584   Section        0  gd32f10x_gpio.o(i.gpio_init)
    i.gpio_input_bit_get                     0x08000630   Section        0  gd32f10x_gpio.o(i.gpio_input_bit_get)
    i.gpio_port_set                          0x08000640   Section        0  key.o(i.gpio_port_set)
    i.key_pressed_handle                     0x0800069c   Section        0  key.o(i.key_pressed_handle)
    key_pressed_handle                       0x0800069d   Thumb Code   130  key.o(i.key_pressed_handle)
    i.key_release_handle                     0x08000728   Section        0  key.o(i.key_release_handle)
    key_release_handle                       0x08000729   Thumb Code   148  key.o(i.key_release_handle)
    i.key_scan                               0x080007c4   Section        0  key.o(i.key_scan)
    i.key_wait_double_timeout_handle         0x08000810   Section        0  key.o(i.key_wait_double_timeout_handle)
    key_wait_double_timeout_handle           0x08000811   Thumb Code    88  key.o(i.key_wait_double_timeout_handle)
    i.main                                   0x08000870   Section        0  main.o(i.main)
    i.nvic_irq_enable                        0x080008c8   Section        0  gd32f10x_misc.o(i.nvic_irq_enable)
    i.nvic_priority_group_set                0x08000974   Section        0  gd32f10x_misc.o(i.nvic_priority_group_set)
    i.nvic_vector_table_set                  0x08000988   Section        0  gd32f10x_misc.o(i.nvic_vector_table_set)
    i.rcu_clock_freq_get                     0x080009a0   Section        0  gd32f10x_rcu.o(i.rcu_clock_freq_get)
    i.rcu_periph_clock_enable                0x08000ac4   Section        0  gd32f10x_rcu.o(i.rcu_periph_clock_enable)
    i.rcu_periph_reset_disable               0x08000ae4   Section        0  gd32f10x_rcu.o(i.rcu_periph_reset_disable)
    i.rcu_periph_reset_enable                0x08000b04   Section        0  gd32f10x_rcu.o(i.rcu_periph_reset_enable)
    i.system_clock_96m_hxtal                 0x08000b24   Section        0  system_gd32f10x.o(i.system_clock_96m_hxtal)
    system_clock_96m_hxtal                   0x08000b25   Thumb Code   180  system_gd32f10x.o(i.system_clock_96m_hxtal)
    i.system_clock_config                    0x08000be0   Section        0  system_gd32f10x.o(i.system_clock_config)
    system_clock_config                      0x08000be1   Thumb Code     8  system_gd32f10x.o(i.system_clock_config)
    i.systick_clksource_set                  0x08000be8   Section        0  gd32f10x_misc.o(i.systick_clksource_set)
    i.systick_set                            0x08000c10   Section        0  systick.o(i.systick_set)
    i.timer_base_set                         0x08000c34   Section        0  timer.o(i.timer_base_set)
    i.timer_enable                           0x08000c80   Section        0  gd32f10x_timer.o(i.timer_enable)
    i.timer_init                             0x08000c8c   Section        0  gd32f10x_timer.o(i.timer_init)
    i.timer_interrupt_enable                 0x08000d6c   Section        0  gd32f10x_timer.o(i.timer_interrupt_enable)
    i.timer_interrupt_flag_clear             0x08000d74   Section        0  gd32f10x_timer.o(i.timer_interrupt_flag_clear)
    i.timer_interrupt_flag_get               0x08000d7a   Section        0  gd32f10x_timer.o(i.timer_interrupt_flag_get)
    i.usart_baudrate_set                     0x08000d94   Section        0  gd32f10x_usart.o(i.usart_baudrate_set)
    i.usart_data_transmit                    0x08000e24   Section        0  gd32f10x_usart.o(i.usart_data_transmit)
    i.usart_deinit                           0x08000e2c   Section        0  gd32f10x_usart.o(i.usart_deinit)
    i.usart_enable                           0x08000ebc   Section        0  gd32f10x_usart.o(i.usart_enable)
    i.usart_flag_get                         0x08000ec6   Section        0  gd32f10x_usart.o(i.usart_flag_get)
    i.usart_init                             0x08000ee4   Section        0  usart.o(i.usart_init)
    i.usart_receive_config                   0x08000f44   Section        0  gd32f10x_usart.o(i.usart_receive_config)
    i.usart_transmit_config                  0x08000f54   Section        0  gd32f10x_usart.o(i.usart_transmit_config)
    .data                                    0x20000000   Section        8  systick.o(.data)
    .data                                    0x20000008   Section       44  key.o(.data)
    t                                        0x20000030   Data           4  key.o(.data)
    .data                                    0x20000034   Section        4  stdout.o(.data)
    .bss                                     0x20000038   Section       24  key.o(.bss)
    STACK                                    0x20000050   Section     1024  startup_gd32f10x_xd.o(STACK)

    Global Symbols

    Symbol Name                              Value     Ov Type        Size  Object(Section)

    BuildAttributes$$THM_ISAv4$P$D$K$B$S$PE$A:L22UL41UL21$X:L11$S22US41US21$IEEE1$IW$USESV6$~STKCKD$USESV7$~SHL$OSPACE$ROPI$EBA8$MICROLIB$REQ8$PRES8$EABIv2 0x00000000   Number         0  anon$$obj.o ABSOLUTE
    __ARM_use_no_argv                        0x00000000   Number         0  main.o ABSOLUTE
    _printf_a                                0x00000000   Number         0  stubs.o ABSOLUTE
    _printf_c                                0x00000000   Number         0  stubs.o ABSOLUTE
    _printf_charcount                        0x00000000   Number         0  stubs.o ABSOLUTE
    _printf_d                                0x00000000   Number         0  stubs.o ABSOLUTE
    _printf_e                                0x00000000   Number         0  stubs.o ABSOLUTE
    _printf_f                                0x00000000   Number         0  stubs.o ABSOLUTE
    _printf_flags                            0x00000000   Number         0  stubs.o ABSOLUTE
    _printf_fp_dec                           0x00000000   Number         0  stubs.o ABSOLUTE
    _printf_fp_hex                           0x00000000   Number         0  stubs.o ABSOLUTE
    _printf_g                                0x00000000   Number         0  stubs.o ABSOLUTE
    _printf_i                                0x00000000   Number         0  stubs.o ABSOLUTE
    _printf_int_dec                          0x00000000   Number         0  stubs.o ABSOLUTE
    _printf_l                                0x00000000   Number         0  stubs.o ABSOLUTE
    _printf_lc                               0x00000000   Number         0  stubs.o ABSOLUTE
    _printf_ll                               0x00000000   Number         0  stubs.o ABSOLUTE
    _printf_lld                              0x00000000   Number         0  stubs.o ABSOLUTE
    _printf_lli                              0x00000000   Number         0  stubs.o ABSOLUTE
    _printf_llo                              0x00000000   Number         0  stubs.o ABSOLUTE
    _printf_llu                              0x00000000   Number         0  stubs.o ABSOLUTE
    _printf_llx                              0x00000000   Number         0  stubs.o ABSOLUTE
    _printf_longlong_dec                     0x00000000   Number         0  stubs.o ABSOLUTE
    _printf_longlong_hex                     0x00000000   Number         0  stubs.o ABSOLUTE
    _printf_longlong_oct                     0x00000000   Number         0  stubs.o ABSOLUTE
    _printf_ls                               0x00000000   Number         0  stubs.o ABSOLUTE
    _printf_mbtowc                           0x00000000   Number         0  stubs.o ABSOLUTE
    _printf_n                                0x00000000   Number         0  stubs.o ABSOLUTE
    _printf_o                                0x00000000   Number         0  stubs.o ABSOLUTE
    _printf_p                                0x00000000   Number         0  stubs.o ABSOLUTE
    _printf_percent                          0x00000000   Number         0  stubs.o ABSOLUTE
    _printf_pre_padding                      0x00000000   Number         0  stubs.o ABSOLUTE
    _printf_return_value                     0x00000000   Number         0  stubs.o ABSOLUTE
    _printf_s                                0x00000000   Number         0  stubs.o ABSOLUTE
    _printf_sizespec                         0x00000000   Number         0  stubs.o ABSOLUTE
    _printf_str                              0x00000000   Number         0  stubs.o ABSOLUTE
    _printf_truncate_signed                  0x00000000   Number         0  stubs.o ABSOLUTE
    _printf_truncate_unsigned                0x00000000   Number         0  stubs.o ABSOLUTE
    _printf_u                                0x00000000   Number         0  stubs.o ABSOLUTE
    _printf_wc                               0x00000000   Number         0  stubs.o ABSOLUTE
    _printf_wctomb                           0x00000000   Number         0  stubs.o ABSOLUTE
    _printf_widthprec                        0x00000000   Number         0  stubs.o ABSOLUTE
    _printf_x                                0x00000000   Number         0  stubs.o ABSOLUTE
    __cpp_initialize__aeabi_                  - Undefined Weak Reference
    __cxa_finalize                            - Undefined Weak Reference
    __decompress                              - Undefined Weak Reference
    _clock_init                               - Undefined Weak Reference
    _microlib_exit                            - Undefined Weak Reference
    __Vectors_Size                           0x00000130   Number         0  startup_gd32f10x_xd.o ABSOLUTE
    __Vectors                                0x08000000   Data           4  startup_gd32f10x_xd.o(RESET)
    __Vectors_End                            0x08000130   Data           0  startup_gd32f10x_xd.o(RESET)
    __main                                   0x08000131   Thumb Code     0  entry.o(.ARM.Collect$$$$00000000)
    _main_stk                                0x08000131   Thumb Code     0  entry2.o(.ARM.Collect$$$$00000001)
    _main_scatterload                        0x08000135   Thumb Code     0  entry5.o(.ARM.Collect$$$$00000004)
    __main_after_scatterload                 0x08000139   Thumb Code     0  entry5.o(.ARM.Collect$$$$00000004)
    _main_clock                              0x08000139   Thumb Code     0  entry7b.o(.ARM.Collect$$$$00000008)
    _main_cpp_init                           0x08000139   Thumb Code     0  entry8b.o(.ARM.Collect$$$$0000000A)
    _main_init                               0x08000139   Thumb Code     0  entry9a.o(.ARM.Collect$$$$0000000B)
    __rt_final_cpp                           0x08000141   Thumb Code     0  entry10a.o(.ARM.Collect$$$$0000000D)
    __rt_final_exit                          0x08000141   Thumb Code     0  entry11a.o(.ARM.Collect$$$$0000000F)
    Reset_Handler                            0x08000145   Thumb Code     8  startup_gd32f10x_xd.o(.text)
    ADC0_1_IRQHandler                        0x0800015f   Thumb Code     0  startup_gd32f10x_xd.o(.text)
    ADC2_IRQHandler                          0x0800015f   Thumb Code     0  startup_gd32f10x_xd.o(.text)
    CAN0_EWMC_IRQHandler                     0x0800015f   Thumb Code     0  startup_gd32f10x_xd.o(.text)
    CAN0_RX1_IRQHandler                      0x0800015f   Thumb Code     0  startup_gd32f10x_xd.o(.text)
    DMA0_Channel0_IRQHandler                 0x0800015f   Thumb Code     0  startup_gd32f10x_xd.o(.text)
    DMA0_Channel1_IRQHandler                 0x0800015f   Thumb Code     0  startup_gd32f10x_xd.o(.text)
    DMA0_Channel2_IRQHandler                 0x0800015f   Thumb Code     0  startup_gd32f10x_xd.o(.text)
    DMA0_Channel3_IRQHandler                 0x0800015f   Thumb Code     0  startup_gd32f10x_xd.o(.text)
    DMA0_Channel4_IRQHandler                 0x0800015f   Thumb Code     0  startup_gd32f10x_xd.o(.text)
    DMA0_Channel5_IRQHandler                 0x0800015f   Thumb Code     0  startup_gd32f10x_xd.o(.text)
    DMA0_Channel6_IRQHandler                 0x0800015f   Thumb Code     0  startup_gd32f10x_xd.o(.text)
    DMA1_Channel0_IRQHandler                 0x0800015f   Thumb Code     0  startup_gd32f10x_xd.o(.text)
    DMA1_Channel1_IRQHandler                 0x0800015f   Thumb Code     0  startup_gd32f10x_xd.o(.text)
    DMA1_Channel2_IRQHandler                 0x0800015f   Thumb Code     0  startup_gd32f10x_xd.o(.text)
    DMA1_Channel3_4_IRQHandler               0x0800015f   Thumb Code     0  startup_gd32f10x_xd.o(.text)
    EXMC_IRQHandler                          0x0800015f   Thumb Code     0  startup_gd32f10x_xd.o(.text)
    EXTI0_IRQHandler                         0x0800015f   Thumb Code     0  startup_gd32f10x_xd.o(.text)
    EXTI10_15_IRQHandler                     0x0800015f   Thumb Code     0  startup_gd32f10x_xd.o(.text)
    EXTI1_IRQHandler                         0x0800015f   Thumb Code     0  startup_gd32f10x_xd.o(.text)
    EXTI2_IRQHandler                         0x0800015f   Thumb Code     0  startup_gd32f10x_xd.o(.text)
    EXTI3_IRQHandler                         0x0800015f   Thumb Code     0  startup_gd32f10x_xd.o(.text)
    EXTI4_IRQHandler                         0x0800015f   Thumb Code     0  startup_gd32f10x_xd.o(.text)
    EXTI5_9_IRQHandler                       0x0800015f   Thumb Code     0  startup_gd32f10x_xd.o(.text)
    FMC_IRQHandler                           0x0800015f   Thumb Code     0  startup_gd32f10x_xd.o(.text)
    I2C0_ER_IRQHandler                       0x0800015f   Thumb Code     0  startup_gd32f10x_xd.o(.text)
    I2C0_EV_IRQHandler                       0x0800015f   Thumb Code     0  startup_gd32f10x_xd.o(.text)
    I2C1_ER_IRQHandler                       0x0800015f   Thumb Code     0  startup_gd32f10x_xd.o(.text)
    I2C1_EV_IRQHandler                       0x0800015f   Thumb Code     0  startup_gd32f10x_xd.o(.text)
    LVD_IRQHandler                           0x0800015f   Thumb Code     0  startup_gd32f10x_xd.o(.text)
    RCU_IRQHandler                           0x0800015f   Thumb Code     0  startup_gd32f10x_xd.o(.text)
    RTC_Alarm_IRQHandler                     0x0800015f   Thumb Code     0  startup_gd32f10x_xd.o(.text)
    RTC_IRQHandler                           0x0800015f   Thumb Code     0  startup_gd32f10x_xd.o(.text)
    SDIO_IRQHandler                          0x0800015f   Thumb Code     0  startup_gd32f10x_xd.o(.text)
    SPI0_IRQHandler                          0x0800015f   Thumb Code     0  startup_gd32f10x_xd.o(.text)
    SPI1_IRQHandler                          0x0800015f   Thumb Code     0  startup_gd32f10x_xd.o(.text)
    SPI2_IRQHandler                          0x0800015f   Thumb Code     0  startup_gd32f10x_xd.o(.text)
    TAMPER_IRQHandler                        0x0800015f   Thumb Code     0  startup_gd32f10x_xd.o(.text)
    TIMER0_BRK_TIMER8_IRQHandler             0x0800015f   Thumb Code     0  startup_gd32f10x_xd.o(.text)
    TIMER0_Channel_IRQHandler                0x0800015f   Thumb Code     0  startup_gd32f10x_xd.o(.text)
    TIMER0_TRG_CMT_TIMER10_IRQHandler        0x0800015f   Thumb Code     0  startup_gd32f10x_xd.o(.text)
    TIMER0_UP_TIMER9_IRQHandler              0x0800015f   Thumb Code     0  startup_gd32f10x_xd.o(.text)
    TIMER1_IRQHandler                        0x0800015f   Thumb Code     0  startup_gd32f10x_xd.o(.text)
    TIMER2_IRQHandler                        0x0800015f   Thumb Code     0  startup_gd32f10x_xd.o(.text)
    TIMER3_IRQHandler                        0x0800015f   Thumb Code     0  startup_gd32f10x_xd.o(.text)
    TIMER4_IRQHandler                        0x0800015f   Thumb Code     0  startup_gd32f10x_xd.o(.text)
    TIMER5_IRQHandler                        0x0800015f   Thumb Code     0  startup_gd32f10x_xd.o(.text)
    TIMER7_BRK_TIMER11_IRQHandler            0x0800015f   Thumb Code     0  startup_gd32f10x_xd.o(.text)
    TIMER7_Channel_IRQHandler                0x0800015f   Thumb Code     0  startup_gd32f10x_xd.o(.text)
    TIMER7_TRG_CMT_TIMER13_IRQHandler        0x0800015f   Thumb Code     0  startup_gd32f10x_xd.o(.text)
    TIMER7_UP_TIMER12_IRQHandler             0x0800015f   Thumb Code     0  startup_gd32f10x_xd.o(.text)
    UART3_IRQHandler                         0x0800015f   Thumb Code     0  startup_gd32f10x_xd.o(.text)
    UART4_IRQHandler                         0x0800015f   Thumb Code     0  startup_gd32f10x_xd.o(.text)
    USART0_IRQHandler                        0x0800015f   Thumb Code     0  startup_gd32f10x_xd.o(.text)
    USART1_IRQHandler                        0x0800015f   Thumb Code     0  startup_gd32f10x_xd.o(.text)
    USART2_IRQHandler                        0x0800015f   Thumb Code     0  startup_gd32f10x_xd.o(.text)
    USBD_HP_CAN0_TX_IRQHandler               0x0800015f   Thumb Code     0  startup_gd32f10x_xd.o(.text)
    USBD_LP_CAN0_RX0_IRQHandler              0x0800015f   Thumb Code     0  startup_gd32f10x_xd.o(.text)
    USBD_WKUP_IRQHandler                     0x0800015f   Thumb Code     0  startup_gd32f10x_xd.o(.text)
    WWDGT_IRQHandler                         0x0800015f   Thumb Code     0  startup_gd32f10x_xd.o(.text)
    __aeabi_uidiv                            0x08000169   Thumb Code     0  uidiv.o(.text)
    __aeabi_uidivmod                         0x08000169   Thumb Code    44  uidiv.o(.text)
    __scatterload                            0x08000195   Thumb Code    28  init.o(.text)
    __scatterload_rt2                        0x08000195   Thumb Code     0  init.o(.text)
    BusFault_Handler                         0x080001b9   Thumb Code     4  gd32f10x_it.o(i.BusFault_Handler)
    DebugMon_Handler                         0x080001bd   Thumb Code     2  gd32f10x_it.o(i.DebugMon_Handler)
    HardFault_Handler                        0x080001bf   Thumb Code     4  gd32f10x_it.o(i.HardFault_Handler)
    MemManage_Handler                        0x080001c3   Thumb Code     4  gd32f10x_it.o(i.MemManage_Handler)
    NMI_Handler                              0x080001c7   Thumb Code     2  gd32f10x_it.o(i.NMI_Handler)
    PendSV_Handler                           0x080001c9   Thumb Code     2  gd32f10x_it.o(i.PendSV_Handler)
    SVC_Handler                              0x080001cb   Thumb Code     2  gd32f10x_it.o(i.SVC_Handler)
    SysTick_Handler                          0x080001cd   Thumb Code     2  gd32f10x_it.o(i.SysTick_Handler)
    SystemInit                               0x080001d1   Thumb Code   196  system_gd32f10x.o(i.SystemInit)
    TIMER6_IRQHandler                        0x080002a5   Thumb Code    56  key.o(i.TIMER6_IRQHandler)
    UsageFault_Handler                       0x080002f5   Thumb Code     4  gd32f10x_it.o(i.UsageFault_Handler)
    __0printf$1                              0x080002f9   Thumb Code    22  printf1.o(i.__0printf$1)
    __1printf$1                              0x080002f9   Thumb Code     0  printf1.o(i.__0printf$1)
    __2printf                                0x080002f9   Thumb Code     0  printf1.o(i.__0printf$1)
    __scatterload_copy                       0x08000319   Thumb Code    14  handlers.o(i.__scatterload_copy)
    __scatterload_null                       0x08000327   Thumb Code     2  handlers.o(i.__scatterload_null)
    __scatterload_zeroinit                   0x08000329   Thumb Code    14  handlers.o(i.__scatterload_zeroinit)
    fputc                                    0x0800048d   Thumb Code    32  usart.o(i.fputc)
    gpio_init                                0x08000585   Thumb Code   172  gd32f10x_gpio.o(i.gpio_init)
    gpio_input_bit_get                       0x08000631   Thumb Code    16  gd32f10x_gpio.o(i.gpio_input_bit_get)
    gpio_port_set                            0x08000641   Thumb Code    80  key.o(i.gpio_port_set)
    key_scan                                 0x080007c5   Thumb Code    70  key.o(i.key_scan)
    main                                     0x08000871   Thumb Code    64  main.o(i.main)
    nvic_irq_enable                          0x080008c9   Thumb Code   162  gd32f10x_misc.o(i.nvic_irq_enable)
    nvic_priority_group_set                  0x08000975   Thumb Code    10  gd32f10x_misc.o(i.nvic_priority_group_set)
    nvic_vector_table_set                    0x08000989   Thumb Code    16  gd32f10x_misc.o(i.nvic_vector_table_set)
    rcu_clock_freq_get                       0x080009a1   Thumb Code   264  gd32f10x_rcu.o(i.rcu_clock_freq_get)
    rcu_periph_clock_enable                  0x08000ac5   Thumb Code    28  gd32f10x_rcu.o(i.rcu_periph_clock_enable)
    rcu_periph_reset_disable                 0x08000ae5   Thumb Code    28  gd32f10x_rcu.o(i.rcu_periph_reset_disable)
    rcu_periph_reset_enable                  0x08000b05   Thumb Code    28  gd32f10x_rcu.o(i.rcu_periph_reset_enable)
    systick_clksource_set                    0x08000be9   Thumb Code    40  gd32f10x_misc.o(i.systick_clksource_set)
    systick_set                              0x08000c11   Thumb Code    26  systick.o(i.systick_set)
    timer_base_set                           0x08000c35   Thumb Code    72  timer.o(i.timer_base_set)
    timer_enable                             0x08000c81   Thumb Code    10  gd32f10x_timer.o(i.timer_enable)
    timer_init                               0x08000c8d   Thumb Code   170  gd32f10x_timer.o(i.timer_init)
    timer_interrupt_enable                   0x08000d6d   Thumb Code     8  gd32f10x_timer.o(i.timer_interrupt_enable)
    timer_interrupt_flag_clear               0x08000d75   Thumb Code     6  gd32f10x_timer.o(i.timer_interrupt_flag_clear)
    timer_interrupt_flag_get                 0x08000d7b   Thumb Code    24  gd32f10x_timer.o(i.timer_interrupt_flag_get)
    usart_baudrate_set                       0x08000d95   Thumb Code   136  gd32f10x_usart.o(i.usart_baudrate_set)
    usart_data_transmit                      0x08000e25   Thumb Code     8  gd32f10x_usart.o(i.usart_data_transmit)
    usart_deinit                             0x08000e2d   Thumb Code   136  gd32f10x_usart.o(i.usart_deinit)
    usart_enable                             0x08000ebd   Thumb Code    10  gd32f10x_usart.o(i.usart_enable)
    usart_flag_get                           0x08000ec7   Thumb Code    30  gd32f10x_usart.o(i.usart_flag_get)
    usart_init                               0x08000ee5   Thumb Code    86  usart.o(i.usart_init)
    usart_receive_config                     0x08000f45   Thumb Code    16  gd32f10x_usart.o(i.usart_receive_config)
    usart_transmit_config                    0x08000f55   Thumb Code    16  gd32f10x_usart.o(i.usart_transmit_config)
    Region$$Table$$Base                      0x08000f64   Number         0  anon$$obj.o(Region$$Table)
    Region$$Table$$Limit                     0x08000f84   Number         0  anon$$obj.o(Region$$Table)
    fac_us                                   0x20000000   Data           1  systick.o(.data)
    fac_ms                                   0x20000004   Data           4  systick.o(.data)
    keys_info                                0x20000008   Data          40  key.o(.data)
    __stdout                                 0x20000034   Data           4  stdout.o(.data)
    key                                      0x20000038   Data          24  key.o(.bss)
    __initial_sp                             0x20000450   Data           0  startup_gd32f10x_xd.o(STACK)



==============================================================================

Memory Map of the image

  Image Entry point : 0x08000131

  Load Region LR_IROM1 (Base: 0x08000000, Size: 0x00000fbc, Max: 0x00300000, ABSOLUTE)

    Execution Region ER_IROM1 (Exec base: 0x08000000, Load base: 0x08000000, Size: 0x00000f84, Max: 0x00300000, ABSOLUTE)

    Exec Addr    Load Addr    Size         Type   Attr      Idx    E Section Name        Object

    0x08000000   0x08000000   0x00000130   Data   RO          274    RESET               startup_gd32f10x_xd.o
    0x08000130   0x08000130   0x00000000   Code   RO         3999  * .ARM.Collect$$$$00000000  mc_w.l(entry.o)
    0x08000130   0x08000130   0x00000004   Code   RO         4263    .ARM.Collect$$$$00000001  mc_w.l(entry2.o)
    0x08000134   0x08000134   0x00000004   Code   RO         4266    .ARM.Collect$$$$00000004  mc_w.l(entry5.o)
    0x08000138   0x08000138   0x00000000   Code   RO         4268    .ARM.Collect$$$$00000008  mc_w.l(entry7b.o)
    0x08000138   0x08000138   0x00000000   Code   RO         4270    .ARM.Collect$$$$0000000A  mc_w.l(entry8b.o)
    0x08000138   0x08000138   0x00000008   Code   RO         4271    .ARM.Collect$$$$0000000B  mc_w.l(entry9a.o)
    0x08000140   0x08000140   0x00000000   Code   RO         4273    .ARM.Collect$$$$0000000D  mc_w.l(entry10a.o)
    0x08000140   0x08000140   0x00000000   Code   RO         4275    .ARM.Collect$$$$0000000F  mc_w.l(entry11a.o)
    0x08000140   0x08000140   0x00000004   Code   RO         4264    .ARM.Collect$$$$00002712  mc_w.l(entry2.o)
    0x08000144   0x08000144   0x00000024   Code   RO          275    .text               startup_gd32f10x_xd.o
    0x08000168   0x08000168   0x0000002c   Code   RO         4278    .text               mc_w.l(uidiv.o)
    0x08000194   0x08000194   0x00000024   Code   RO         4293    .text               mc_w.l(init.o)
    0x080001b8   0x080001b8   0x00000004   Code   RO            3    i.BusFault_Handler  gd32f10x_it.o
    0x080001bc   0x080001bc   0x00000002   Code   RO            4    i.DebugMon_Handler  gd32f10x_it.o
    0x080001be   0x080001be   0x00000004   Code   RO            5    i.HardFault_Handler  gd32f10x_it.o
    0x080001c2   0x080001c2   0x00000004   Code   RO            6    i.MemManage_Handler  gd32f10x_it.o
    0x080001c6   0x080001c6   0x00000002   Code   RO            7    i.NMI_Handler       gd32f10x_it.o
    0x080001c8   0x080001c8   0x00000002   Code   RO            8    i.PendSV_Handler    gd32f10x_it.o
    0x080001ca   0x080001ca   0x00000002   Code   RO            9    i.SVC_Handler       gd32f10x_it.o
    0x080001cc   0x080001cc   0x00000002   Code   RO           10    i.SysTick_Handler   gd32f10x_it.o
    0x080001ce   0x080001ce   0x00000002   PAD
    0x080001d0   0x080001d0   0x000000d4   Code   RO          233    i.SystemInit        system_gd32f10x.o
    0x080002a4   0x080002a4   0x00000050   Code   RO         3914    i.TIMER6_IRQHandler  key.o
    0x080002f4   0x080002f4   0x00000004   Code   RO           11    i.UsageFault_Handler  gd32f10x_it.o
    0x080002f8   0x080002f8   0x00000020   Code   RO         4047    i.__0printf$1       mc_w.l(printf1.o)
    0x08000318   0x08000318   0x0000000e   Code   RO         4305    i.__scatterload_copy  mc_w.l(handlers.o)
    0x08000326   0x08000326   0x00000002   Code   RO         4306    i.__scatterload_null  mc_w.l(handlers.o)
    0x08000328   0x08000328   0x0000000e   Code   RO         4307    i.__scatterload_zeroinit  mc_w.l(handlers.o)
    0x08000336   0x08000336   0x00000002   PAD
    0x08000338   0x08000338   0x00000154   Code   RO         4054    i._printf_core      mc_w.l(printf1.o)
    0x0800048c   0x0800048c   0x00000024   Code   RO         3885    i.fputc             usart.o
    0x080004b0   0x080004b0   0x00000084   Code   RO         3915    i.get_key_id        key.o
    0x08000534   0x08000534   0x00000050   Code   RO         3916    i.get_key_input     key.o
    0x08000584   0x08000584   0x000000ac   Code   RO         1783    i.gpio_init         gd32f10x_gpio.o
    0x08000630   0x08000630   0x00000010   Code   RO         1784    i.gpio_input_bit_get  gd32f10x_gpio.o
    0x08000640   0x08000640   0x0000005c   Code   RO         3917    i.gpio_port_set     key.o
    0x0800069c   0x0800069c   0x0000008c   Code   RO         3918    i.key_pressed_handle  key.o
    0x08000728   0x08000728   0x0000009c   Code   RO         3919    i.key_release_handle  key.o
    0x080007c4   0x080007c4   0x0000004c   Code   RO         3920    i.key_scan          key.o
    0x08000810   0x08000810   0x00000060   Code   RO         3921    i.key_wait_double_timeout_handle  key.o
    0x08000870   0x08000870   0x00000058   Code   RO          172    i.main              main.o
    0x080008c8   0x080008c8   0x000000ac   Code   RO         2091    i.nvic_irq_enable   gd32f10x_misc.o
    0x08000974   0x08000974   0x00000014   Code   RO         2092    i.nvic_priority_group_set  gd32f10x_misc.o
    0x08000988   0x08000988   0x00000018   Code   RO         2093    i.nvic_vector_table_set  gd32f10x_misc.o
    0x080009a0   0x080009a0   0x00000124   Code   RO         2241    i.rcu_clock_freq_get  gd32f10x_rcu.o
    0x08000ac4   0x08000ac4   0x00000020   Code   RO         2258    i.rcu_periph_clock_enable  gd32f10x_rcu.o
    0x08000ae4   0x08000ae4   0x00000020   Code   RO         2261    i.rcu_periph_reset_disable  gd32f10x_rcu.o
    0x08000b04   0x08000b04   0x00000020   Code   RO         2262    i.rcu_periph_reset_enable  gd32f10x_rcu.o
    0x08000b24   0x08000b24   0x000000bc   Code   RO          234    i.system_clock_96m_hxtal  system_gd32f10x.o
    0x08000be0   0x08000be0   0x00000008   Code   RO          235    i.system_clock_config  system_gd32f10x.o
    0x08000be8   0x08000be8   0x00000028   Code   RO         2096    i.systick_clksource_set  gd32f10x_misc.o
    0x08000c10   0x08000c10   0x00000024   Code   RO         3830    i.systick_set       systick.o
    0x08000c34   0x08000c34   0x0000004c   Code   RO         3978    i.timer_base_set    timer.o
    0x08000c80   0x08000c80   0x0000000a   Code   RO         3087    i.timer_enable      gd32f10x_timer.o
    0x08000c8a   0x08000c8a   0x00000002   PAD
    0x08000c8c   0x08000c8c   0x000000e0   Code   RO         3097    i.timer_init        gd32f10x_timer.o
    0x08000d6c   0x08000d6c   0x00000008   Code   RO         3104    i.timer_interrupt_enable  gd32f10x_timer.o
    0x08000d74   0x08000d74   0x00000006   Code   RO         3105    i.timer_interrupt_flag_clear  gd32f10x_timer.o
    0x08000d7a   0x08000d7a   0x00000018   Code   RO         3106    i.timer_interrupt_flag_get  gd32f10x_timer.o
    0x08000d92   0x08000d92   0x00000002   PAD
    0x08000d94   0x08000d94   0x00000090   Code   RO         3480    i.usart_baudrate_set  gd32f10x_usart.o
    0x08000e24   0x08000e24   0x00000008   Code   RO         3482    i.usart_data_transmit  gd32f10x_usart.o
    0x08000e2c   0x08000e2c   0x00000090   Code   RO         3483    i.usart_deinit      gd32f10x_usart.o
    0x08000ebc   0x08000ebc   0x0000000a   Code   RO         3487    i.usart_enable      gd32f10x_usart.o
    0x08000ec6   0x08000ec6   0x0000001e   Code   RO         3489    i.usart_flag_get    gd32f10x_usart.o
    0x08000ee4   0x08000ee4   0x00000060   Code   RO         3886    i.usart_init        usart.o
    0x08000f44   0x08000f44   0x00000010   Code   RO         3510    i.usart_receive_config  gd32f10x_usart.o
    0x08000f54   0x08000f54   0x00000010   Code   RO         3520    i.usart_transmit_config  gd32f10x_usart.o
    0x08000f64   0x08000f64   0x00000020   Data   RO         4303    Region$$Table       anon$$obj.o


    Execution Region RW_IRAM1 (Exec base: 0x20000000, Load base: 0x08000f84, Size: 0x00000450, Max: 0x00018000, ABSOLUTE)

    Exec Addr    Load Addr    Size         Type   Attr      Idx    E Section Name        Object

    0x20000000   0x08000f84   0x00000008   Data   RW         3831    .data               systick.o
    0x20000008   0x08000f8c   0x0000002c   Data   RW         3923    .data               key.o
    0x20000034   0x08000fb8   0x00000004   Data   RW         4277    .data               mc_w.l(stdout.o)
    0x20000038        -       0x00000018   Zero   RW         3922    .bss                key.o
    0x20000050        -       0x00000400   Zero   RW          272    STACK               startup_gd32f10x_xd.o


==============================================================================

Image component sizes


      Code (inc. data)   RO Data    RW Data    ZI Data      Debug   Object Name

         0          0          0          0          0       1932   bitband.o
       188          0          0          0          0       1421   gd32f10x_gpio.o
        26          0          0          0          0      42414   gd32f10x_it.o
       256         28          0          0          0       2368   gd32f10x_misc.o
       388         40          0          0          0       2648   gd32f10x_rcu.o
       272         54          0          0          0       3401   gd32f10x_timer.o
       368         16          0          0          0       4117   gd32f10x_usart.o
       852        104          0         44         24       6035   key.o
        88         24          0          0          0       7887   main.o
        36          8        304          0       1024        792   startup_gd32f10x_xd.o
       408         24          0          0          0       2265   system_gd32f10x.o
        36         10          0          8          0        766   systick.o
        76          4          0          0          0        609   timer.o
       132         14          0          0          0       1081   usart.o

    ----------------------------------------------------------------------
      3132        326        336         52       1048      77736   Object Totals
         0          0         32          0          0          0   (incl. Generated)
         6          0          0          0          0          0   (incl. Padding)

    ----------------------------------------------------------------------

      Code (inc. data)   RO Data    RW Data    ZI Data      Debug   Library Member Name

         0          0          0          0          0          0   entry.o
         0          0          0          0          0          0   entry10a.o
         0          0          0          0          0          0   entry11a.o
         8          4          0          0          0          0   entry2.o
         4          0          0          0          0          0   entry5.o
         0          0          0          0          0          0   entry7b.o
         0          0          0          0          0          0   entry8b.o
         8          4          0          0          0          0   entry9a.o
        30          0          0          0          0          0   handlers.o
        36          8          0          0          0         68   init.o
       372         14          0          0          0        184   printf1.o
         0          0          0          4          0          0   stdout.o
        44          0          0          0          0         80   uidiv.o

    ----------------------------------------------------------------------
       504         30          0          4          0        332   Library Totals
         2          0          0          0          0          0   (incl. Padding)

    ----------------------------------------------------------------------

      Code (inc. data)   RO Data    RW Data    ZI Data      Debug   Library Name

       502         30          0          4          0        332   mc_w.l

    ----------------------------------------------------------------------
       504         30          0          4          0        332   Library Totals

    ----------------------------------------------------------------------

==============================================================================


      Code (inc. data)   RO Data    RW Data    ZI Data      Debug   

      3636        356        336         56       1048      75880   Grand Totals
      3636        356        336         56       1048      75880   ELF Image Totals
      3636        356        336         56          0          0   ROM Totals

==============================================================================

    Total RO  Size (Code + RO Data)                 3972 (   3.88kB)
    Total RW  Size (RW Data + ZI Data)              1104 (   1.08kB)
    Total ROM Size (Code + RO Data + RW Data)       4028 (   3.93kB)

==============================================================================

